{
  "_format": "hh-sol-artifact-1",
  "contractName": "Token",
  "sourceName": "contracts/Token.sol",
  "abi": [
    {
      "inputs": [
        {
          "internalType": "address[]",
          "name": "_addresses",
          "type": "address[]"
        },
        {
          "internalType": "uint256[]",
          "name": "_bals",
          "type": "uint256[]"
        }
      ],
      "stateMutability": "nonpayable",
      "type": "constructor"
    },
    {
      "anonymous": false,
      "inputs": [
        {
          "indexed": false,
          "internalType": "address",
          "name": "_account",
          "type": "address"
        },
        {
          "indexed": false,
          "internalType": "uint256",
          "name": "_amount",
          "type": "uint256"
        }
      ],
      "name": "Claimed",
      "type": "event"
    },
    {
      "inputs": [
        {
          "internalType": "address",
          "name": "account",
          "type": "address"
        }
      ],
      "name": "balanceOf",
      "outputs": [
        {
          "internalType": "uint256",
          "name": "",
          "type": "uint256"
        }
      ],
      "stateMutability": "view",
      "type": "function"
    },
    {
      "inputs": [
        {
          "internalType": "uint256",
          "name": "_amount",
          "type": "uint256"
        }
      ],
      "name": "claim",
      "outputs": [],
      "stateMutability": "nonpayable",
      "type": "function"
    },
    {
      "inputs": [
        {
          "internalType": "address",
          "name": "_account",
          "type": "address"
        }
      ],
      "name": "getClaimAmount",
      "outputs": [
        {
          "internalType": "uint256",
          "name": "",
          "type": "uint256"
        }
      ],
      "stateMutability": "view",
      "type": "function"
    },
    {
      "inputs": [],
      "name": "name",
      "outputs": [
        {
          "internalType": "string",
          "name": "",
          "type": "string"
        }
      ],
      "stateMutability": "view",
      "type": "function"
    },
    {
      "inputs": [],
      "name": "owner",
      "outputs": [
        {
          "internalType": "address",
          "name": "",
          "type": "address"
        }
      ],
      "stateMutability": "view",
      "type": "function"
    },
    {
      "inputs": [],
      "name": "symbol",
      "outputs": [
        {
          "internalType": "string",
          "name": "",
          "type": "string"
        }
      ],
      "stateMutability": "view",
      "type": "function"
    },
    {
      "inputs": [],
      "name": "totalSupply",
      "outputs": [
        {
          "internalType": "uint256",
          "name": "",
          "type": "uint256"
        }
      ],
      "stateMutability": "view",
      "type": "function"
    },
    {
      "inputs": [
        {
          "internalType": "address",
          "name": "to",
          "type": "address"
        },
        {
          "internalType": "uint256",
          "name": "amount",
          "type": "uint256"
        }
      ],
      "name": "transfer",
      "outputs": [],
      "stateMutability": "nonpayable",
      "type": "function"
    }
  ],
  "bytecode": "0x60806040526040518060400160405280601081526020017f4d79204861726468617420546f6b656e000000000000000000000000000000008152506000908051906020019062000051929190620001cc565b506040518060400160405280600381526020017f5253540000000000000000000000000000000000000000000000000000000000815250600190805190602001906200009f929190620001cc565b50620f4240600255348015620000b457600080fd5b50604051620012ee380380620012ee8339818101604052810190620000da9190620003ee565b60005b8251811015620001c35781818151811062000121577f4e487b7100000000000000000000000000000000000000000000000000000000600052603260045260246000fd5b60200260200101516005600085848151811062000167577f4e487b7100000000000000000000000000000000000000000000000000000000600052603260045260246000fd5b602002602001015173ffffffffffffffffffffffffffffffffffffffff1673ffffffffffffffffffffffffffffffffffffffff168152602001908152602001600020819055508080620001ba9062000592565b915050620000dd565b505050620006b2565b828054620001da9062000526565b90600052602060002090601f016020900481019282620001fe57600085556200024a565b82601f106200021957805160ff19168380011785556200024a565b828001600101855582156200024a579182015b82811115620002495782518255916020019190600101906200022c565b5b5090506200025991906200025d565b5090565b5b80821115620002785760008160009055506001016200025e565b5090565b6000620002936200028d846200048a565b62000461565b90508083825260208201905082856020860282011115620002b357600080fd5b60005b85811015620002e75781620002cc888262000366565b845260208401935060208301925050600181019050620002b6565b5050509392505050565b6000620003086200030284620004b9565b62000461565b905080838252602082019050828560208602820111156200032857600080fd5b60005b858110156200035c5781620003418882620003d7565b8452602084019350602083019250506001810190506200032b565b5050509392505050565b60008151905062000377816200067e565b92915050565b600082601f8301126200038f57600080fd5b8151620003a18482602086016200027c565b91505092915050565b600082601f830112620003bc57600080fd5b8151620003ce848260208601620002f1565b91505092915050565b600081519050620003e88162000698565b92915050565b600080604083850312156200040257600080fd5b600083015167ffffffffffffffff8111156200041d57600080fd5b6200042b858286016200037d565b925050602083015167ffffffffffffffff8111156200044957600080fd5b6200045785828601620003aa565b9150509250929050565b60006200046d62000480565b90506200047b82826200055c565b919050565b6000604051905090565b600067ffffffffffffffff821115620004a857620004a76200063e565b5b602082029050602081019050919050565b600067ffffffffffffffff821115620004d757620004d66200063e565b5b602082029050602081019050919050565b6000620004f582620004fc565b9050919050565b600073ffffffffffffffffffffffffffffffffffffffff82169050919050565b6000819050919050565b600060028204905060018216806200053f57607f821691505b602082108114156200055657620005556200060f565b5b50919050565b62000567826200066d565b810181811067ffffffffffffffff821117156200058957620005886200063e565b5b80604052505050565b60006200059f826200051c565b91507fffffffffffffffffffffffffffffffffffffffffffffffffffffffffffffffff821415620005d557620005d4620005e0565b5b600182019050919050565b7f4e487b7100000000000000000000000000000000000000000000000000000000600052601160045260246000fd5b7f4e487b7100000000000000000000000000000000000000000000000000000000600052602260045260246000fd5b7f4e487b7100000000000000000000000000000000000000000000000000000000600052604160045260246000fd5b6000601f19601f8301169050919050565b6200068981620004e8565b81146200069557600080fd5b50565b620006a3816200051c565b8114620006af57600080fd5b50565b610c2c80620006c26000396000f3fe608060405234801561001057600080fd5b50600436106100885760003560e01c80638da5cb5b1161005b5780638da5cb5b1461011557806395d89b4114610133578063a9059cbb14610151578063dde070e81461016d57610088565b806306fdde031461008d57806318160ddd146100ab578063379607f5146100c957806370a08231146100e5575b600080fd5b61009561019d565b6040516100a291906108d3565b60405180910390f35b6100b361022b565b6040516100c09190610981565b60405180910390f35b6100e360048036038101906100de91906107c9565b610231565b005b6100ff60048036038101906100fa9190610764565b6103d3565b60405161010c9190610981565b60405180910390f35b61011d61041c565b60405161012a919061088f565b60405180910390f35b61013b610442565b60405161014891906108d3565b60405180910390f35b61016b6004803603810190610166919061078d565b6104d0565b005b61018760048036038101906101829190610764565b610626565b6040516101949190610981565b60405180910390f35b600080546101aa90610ab1565b80601f01602080910402602001604051908101604052809291908181526020018280546101d690610ab1565b80156102235780601f106101f857610100808354040283529160200191610223565b820191906000526020600020905b81548152906001019060200180831161020657829003601f168201915b505050505081565b60025481565b600560003373ffffffffffffffffffffffffffffffffffffffff1673ffffffffffffffffffffffffffffffffffffffff168152602001908152602001600020548111156102b3576040517f08c379a00000000000000000000000000000000000000000000000000000000081526004016102aa90610961565b60405180910390fd5b80600560003373ffffffffffffffffffffffffffffffffffffffff1673ffffffffffffffffffffffffffffffffffffffff168152602001908152602001600020546102fe9190610a0e565b600560003373ffffffffffffffffffffffffffffffffffffffff1673ffffffffffffffffffffffffffffffffffffffff1681526020019081526020016000208190555080600460003373ffffffffffffffffffffffffffffffffffffffff1673ffffffffffffffffffffffffffffffffffffffff168152602001908152602001600020600082825461039091906109b8565b925050819055507fd8138f8a3f377c5259ca548e70e4c2de94f129f5a11036a15b69513cba2b426a33826040516103c89291906108aa565b60405180910390a150565b6000600460008373ffffffffffffffffffffffffffffffffffffffff1673ffffffffffffffffffffffffffffffffffffffff168152602001908152602001600020549050919050565b600360009054906101000a900473ffffffffffffffffffffffffffffffffffffffff1681565b6001805461044f90610ab1565b80601f016020809104026020016040519081016040528092919081815260200182805461047b90610ab1565b80156104c85780601f1061049d576101008083540402835291602001916104c8565b820191906000526020600020905b8154815290600101906020018083116104ab57829003601f168201915b505050505081565b80600460003373ffffffffffffffffffffffffffffffffffffffff1673ffffffffffffffffffffffffffffffffffffffff168152602001908152602001600020541015610552576040517f08c379a000000000000000000000000000000000000000000000000000000000815260040161054990610941565b60405180910390fd5b610576604051806060016040528060248152602001610bd36024913933848461066f565b80600460003373ffffffffffffffffffffffffffffffffffffffff1673ffffffffffffffffffffffffffffffffffffffff16815260200190815260200160002060008282546105c59190610a0e565b9250508190555080600460008473ffffffffffffffffffffffffffffffffffffffff1673ffffffffffffffffffffffffffffffffffffffff168152602001908152602001600020600082825461061b91906109b8565b925050819055505050565b6000600560008373ffffffffffffffffffffffffffffffffffffffff1673ffffffffffffffffffffffffffffffffffffffff168152602001908152602001600020549050919050565b61070b8484848460405160240161068994939291906108f5565b6040516020818303038152906040527f6eb7943d000000000000000000000000000000000000000000000000000000007bffffffffffffffffffffffffffffffffffffffffffffffffffffffff19166020820180517bffffffffffffffffffffffffffffffffffffffffffffffffffffffff8381831617835250505050610711565b50505050565b60008151905060006a636f6e736f6c652e6c6f679050602083016000808483855afa5050505050565b60008135905061074981610ba4565b92915050565b60008135905061075e81610bbb565b92915050565b60006020828403121561077657600080fd5b60006107848482850161073a565b91505092915050565b600080604083850312156107a057600080fd5b60006107ae8582860161073a565b92505060206107bf8582860161074f565b9150509250929050565b6000602082840312156107db57600080fd5b60006107e98482850161074f565b91505092915050565b6107fb81610a42565b82525050565b600061080c8261099c565b61081681856109a7565b9350610826818560208601610a7e565b61082f81610b41565b840191505092915050565b60006108476011836109a7565b915061085282610b52565b602082019050919050565b600061086a600f836109a7565b915061087582610b7b565b602082019050919050565b61088981610a74565b82525050565b60006020820190506108a460008301846107f2565b92915050565b60006040820190506108bf60008301856107f2565b6108cc6020830184610880565b9392505050565b600060208201905081810360008301526108ed8184610801565b905092915050565b6000608082019050818103600083015261090f8187610801565b905061091e60208301866107f2565b61092b60408301856107f2565b6109386060830184610880565b95945050505050565b6000602082019050818103600083015261095a8161083a565b9050919050565b6000602082019050818103600083015261097a8161085d565b9050919050565b60006020820190506109966000830184610880565b92915050565b600081519050919050565b600082825260208201905092915050565b60006109c382610a74565b91506109ce83610a74565b9250827fffffffffffffffffffffffffffffffffffffffffffffffffffffffffffffffff03821115610a0357610a02610ae3565b5b828201905092915050565b6000610a1982610a74565b9150610a2483610a74565b925082821015610a3757610a36610ae3565b5b828203905092915050565b6000610a4d82610a54565b9050919050565b600073ffffffffffffffffffffffffffffffffffffffff82169050919050565b6000819050919050565b60005b83811015610a9c578082015181840152602081019050610a81565b83811115610aab576000848401525b50505050565b60006002820490506001821680610ac957607f821691505b60208210811415610add57610adc610b12565b5b50919050565b7f4e487b7100000000000000000000000000000000000000000000000000000000600052601160045260246000fd5b7f4e487b7100000000000000000000000000000000000000000000000000000000600052602260045260246000fd5b6000601f19601f8301169050919050565b7f4e6f7420656e6f75676820746f6b656e73000000000000000000000000000000600082015250565b7f636c61696d206f766572666c6f77210000000000000000000000000000000000600082015250565b610bad81610a42565b8114610bb857600080fd5b50565b610bc481610a74565b8114610bcf57600080fd5b5056fe5472616e7366657272696e672066726f6d20257320746f20257320257320746f6b656e73a26469706673582212207e9dc21390b26ac7975141bc4dd7359f83006b33332d330cb96ddb981b83b25c64736f6c63430008040033",
  "linkReferences": {},
  "deployedLinkReferences": {}
}